:020000040800F2
:1000000030A100205D02000825270008B92400085F
:100010002127000829090008993000080000000085
:10002000000000000000000000000000A501000822
:10003000430B000800000000F90100083727000802
:1000400077020008770200087702000877020008AC
:10005000770200087702000877020008770200089C
:10006000770200087702000877020008770200088C
:10007000770200087702000877020008770200087C
:10008000090A0008770200087702000877020008D2
:10009000770200087702000877020008770200085C
:1000A0007702000815280008770200087702000888
:1000B000770200087702000877020008770200083C
:1000C000770200087702000877020008770200082C
:1000D00077020008B12F0008ED2F00087702000812
:1000E000770200087702000877020008770200080C
:1000F00077020008770200087702000877020008FC
:1001000077020008770200087702000877020008EB
:1001100077020008770200087702000877020008DB
:100120007702000877020008190A00087702000821
:1001300077020008770200087702000877020008BB
:1001400077020008770200087702000877020008AB
:100150007702000877020008290A000877020008E1
:10016000770200087702000877020008770200088B
:1001700077020008770200087702000800000000FC
:100180007702000877020008DFF814D000F020FBA7
:1001900000F020F900480047053B0008AFF300805D
:1001A00030A100202A4B19680868B0E8F04F80F3AE
:1001B0000988BFF36F8F4FF0000080F311887047FC
:1001C0000000000006480068006880F3088862B6F6
:1001D00061B6BFF34F8FBFF36F8F00DF00BF00BF6B
:1001E00008ED00E0DFF80C00016841F470010160E7
:1001F000704700BF88ED00E0EFF30980BFF36F8F19
:10020000134B1A681EF0100F08BF20ED108A20E96A
:10021000F04F106008B44FF0500080F31188BFF326
:100220004F8FBFF36F8F06F0D1FA4FF0000080F3CD
:10023000118808BC19680868B0E8F04F1EF0100F6C
:1002400008BFB0EC108A80F30988BFF36F8F704746
:1002500018000020EFF30580704700000648804733
:1002600006480047FEE7FEE7FEE7FEE7FEE7FEE79B
:10027000FEE7FEE7FEE7FEE7012800088901000827
:100280002DE9F05F0546002092469B4688460646CB
:10029000814640241BE0284641464746224600F05E
:1002A000CEF853465A46C01A914110D3114618460B
:1002B000224600F0B5F82D1A67EB01084F4622469A
:1002C0000120002100F0ACF817EB00094E41201E80
:1002D000A4F10104DFDC484631462A464346BDE826
:1002E000F09F2DE9F0410024061B254671F1000620
:1002F00005DA01240027D0EB070067EB0101161E89
:1003000073F1000605DA0027D2EB0702012567EB3F
:100310000303FFF7B5FF86460E4617469C46AC42E0
:1003200004D00025D0EB050E65EB010624B10020BA
:10033000D2EB000760EB030C704631463A46634649
:10034000BDE8F08140EA01039B0703D009E008C93A
:10035000121F08C0042AFAD203E011F8013B00F88A
:10036000013B521EF9D27047D2B201E000F8012BD6
:10037000491EFBD270470022F6E710B513460A4625
:1003800004461946FFF7F0FF204610BD421C10F846
:10039000011B0029FBD1801A704710B5002200E034
:1003A000521C835C8C5CA34201D1002BF8D1D8B2E3
:1003B000E1B2401A10BD30B505460020034600E00A
:1003C0005B1C934205D2EC5CC85C201A01D1002C66
:1003D000F6D130BD70B5054C054D03E020682044D2
:1003E0008047241DAC42F9D170BD0000487B000855
:1003F0004C7B000830B50B4601460020202201242A
:1004000009E021FA02F59D4205D303FA02F5491BE2
:1004100004FA02F52844151EA2F10102F1DC30BDF8
:10042000202A04DB203A00FA02F1002070479140B4
:10043000C2F1200320FA03F3194390407047202AA9
:1004400004DB203A21FA02F00021704721FA02F37E
:10045000D040C2F1200291400843194670472DE96F
:10046000FE4F804681EA0300C00F0C46009021F049
:10047000004123F00045B8EB0200A94105D24046F7
:10048000214690461C460B46024623F0004010438E
:1004900047D0270DC7F30A00C3F30A510290401A50
:1004A000019040286BDAC3F3130040F4801B0098DE
:1004B000924620B10023D2EB030A63EB0B0B0198A9
:1004C0005946C0F140025046FFF7AAFF06460D46C6
:1004D00050465946019A00F08DF910EB0800614131
:1004E000002487EA115284EAE7731A4340D0009A45
:1004F00062B3019A012A4FEA075215DC001B61EB37
:1005000002014FF0004202EA0752CDE90042001C0E
:1005100041F5801132462B4600F08DF903B0BDE85D
:10052000F08F40462146F9E7001B61EB0201001CF9
:1005300041F5801300185B412018A2F5001747EB26
:10054000030140EAD570B6196D4111E06D084FEA1C
:10055000360645EAC0754FEA0752001B61EB0201FF
:10056000001C41F5801149084FEA30000019514143
:1005700032462B4603B0BDE8F04F00F04DB900986D
:10058000012240000023D0EB020263EBE0730098ED
:1005900021464FEAE074B8EB000061EB0401E9E7A3
:1005A00083F000435BE781F0004158E72DE9FE4FFF
:1005B00081EA030404F0004421F0004100944FF06C
:1005C000000B23F0004350EA01045ED052EA03041A
:1005D0005BD0C3F30A54C1F30A552C44A4F2F3349C
:1005E0000194A0FB0254C1F3130141F48011C3F341
:1005F000130343F4801301FB024400FB034E840AFF
:10060000970A44EA815447EA8357A4FB0768029596
:100610008D0A05FB07854FEA932C04FB0C54270534
:10062000029D4FEA065847EA1637B5EB08056EEB10
:10063000070C870E920E47EA811742EA8312A7FB46
:100640000201B6EB0B0164EB00042B0D43EA0C3303
:100650005E1844EB1C50DA465146E7FB0201C5F335
:1006600013044FEA0B3343EA14534FEA0432019C5C
:1006700043EA0603A4F10C040294009CCDE900B403
:1006800000F0D9F803B0BDE8F08F00200146F9E78B
:100690002DE9F04D81EA030404F0004B21F0004500
:1006A00014464FF0000A23F0004150EA050220D022
:1006B00054EA01021DD0C5F30A570246C5F31303DD
:1006C000C1F31300C1F30A5640F4801543F48013BC
:1006D000A7EB0608101BD64608F2FD3873EB0500A1
:1006E00002D308F1010801E092185B41B8F1000F54
:1006F00003DA00200146BDE8F08D00204FF48011A0
:10070000064684460EE0171B73EB050705D3121B44
:1007100063EB050306434CEA010C49084FEA30003D
:1007200092185B4150EA0107EDD152EA030012D062
:1007300082EA040083EA0501084305D0101BAB419F
:1007400006D20122002306E000224FF0004302E01F
:100750006FF0010253101AEB06004CEB085110EB3E
:100760000A0041EB0B01BDE8F04D00F055B8C1F3B4
:100770000A52C1F3130140F2FF3341F480119A424F
:1007800002DA00200146704740F233439A42A2F257
:10079000334202DC5242FFF752BEFFF741BE000077
:1007A00030B5041E71F1000404DB4FF000444042F8
:1007B00064EB0101141E73F1000405DB1C464FF0CD
:1007C0000043524263EB0403994208BF904230BD9C
:1007D000064C074D06E0E06840F0010394E807008E
:1007E00098471034AC42F6D3FFF7D2FCF8790008F2
:1007F000187A0008202A06DBCB17203A41FA02F0CB
:1008000043EAE07306E041FA02F3D040C2F120026D
:10081000914008431946704710B5141E73F1000447
:1008200008DA401C41F1000192185B411A4301D1E2
:1008300020F0010010BD2DE9F04D92469B4611B10C
:10084000B1FA81F202E0B0FA80F220329046FFF76E
:10085000E7FD04460F4640EA0A0041EA0B01534611
:100860005A46084313D0114653EA010019D0C8F183
:1008700040025046FFF7E3FD05460E4650465946F6
:100880004246FFF7CDFD084305D0012004E0204695
:100890003946BDE8F08D0020054346EAE0762C435A
:1008A00037430A986305E40AA0EB08000022FD0A1A
:1008B00044EA47540A3002D500200146E9E7010521
:1008C00010196941DDE9084500196941BDE8F04D9D
:1008D000A2E770B58C1810F8015B15F0070301D181
:1008E00010F8013B2A1106D110F8012B03E010F893
:1008F000016B01F8016B5B1EF9D12B0705D40023B6
:10090000521E0DD401F8013BFAE710F8013BCB1A57
:10091000921C03E013F8015B01F8015B521EF9D54C
:10092000A142D8D3002070BD00BFFEE70146088970
:10093000704710B502460B46104600F020F808B18B
:10094000002010BD91881068405C18709088401C91
:10095000518990FBF1F401FB140090801089401E36
:1009600010810120EDE700B102B970470023036058
:1009700043608360C3600160428100BFF5E70146C8
:10098000088908B9012070470020FCE70146088962
:100990004A89904201D1012070470020FCE72DE9EF
:1009A000F04381460D4616460027B8460FE015F87D
:1009B000011B484600F00FF8044614B93846BDE85C
:1009C000F083381987B208F101001FFA80F8B045AA
:1009D000EDDB3846F3E710B503460C461846FFF743
:1009E000D5FF08B1002010BDD98818684454D888B4
:1009F000401C598990FBF1F201FB1200D880188944
:100A0000401C18810120EEE710B5024800F008F9FB
:100A100010BD00007C02002010B5024800F000F973
:100A200010BD0000BC01002010B5024800F0F8F82D
:100A300010BD00001C020020014608781038182361
:100A4000B0FBF3F20848805CC865032A05D9086842
:100A50006FF30900001D886503E008686FF3090063
:100A60008865886D704700004476000801460020C4
:100A70008A6A8B69CBB932B1012A0DD0022A03D020
:100A8000032A10D10EE000BFCB6A03F08073B3F1EC
:100A9000807F00D1012007E0CB6AB3F1C07F00D195
:100AA000012001E000E000BF34E08B69B3F5005F96
:100AB0001AD132B1012A07D0022A03D0032A11D158
:100AC0000AE000BF01200EE0CB6A03F08073B3F1AF
:100AD000807F00D1012006E0CB6AB3F1C07F00D156
:100AE000012000E000BF15E032B1012A05D0022A42
:100AF00004D0032A0CD103E000BF00BF012008E0AE
:100B0000CB6A03F08073B3F1807F00D1012000E055
:100B100000BF00BF704730B50468246824F4802407
:100B200005682C60046863608468402C04D1046804
:100B3000A2600468E16003E00468A1600468E26008
:100B400030BD704772B600BFFEE770B50446A56DB4
:100B500000F082FB064694F83500022808D0802079
:100B6000606500BF002084F8340000BF012070BD24
:100B70002068006820F0160021680860206840693D
:100B800020F0800021684861206C08B9A06C28B171
:100B90002068006820F0080021680860206800686C
:100BA00020F001002168086010E000F055FB801B78
:100BB00005280BD920206065032084F8350000BF8C
:100BC000002084F8340000BF0320D0E720680068CC
:100BD00000F001000028E8D194F85C103F20884024
:100BE000A860012084F8350000BF002084F834009C
:100BF00000BF00BFBBE7014691F83500022803D0D3
:100C00008020486501207047052081F8350008687C
:100C1000006820F001000A6810600020F3E700007F
:100C2000F8B50446002000908C4800684FF4165137
:100C3000B0FBF1F7A56D2E6894F85C100820884091
:100C4000304098B12068006800F0040070B120685E
:100C5000006820F004002168086094F85C10082007
:100C60008840A860606D40F00100606594F85C10F9
:100C700001208840304068B12068406900F0800061
:100C800040B194F85C1001208840A860606D40F08D
:100C90000200606594F85C1004208840304068B120
:100CA0002068006800F0020040B194F85C10042055
:100CB0008840A860606D40F00400606594F85C10A6
:100CC00010208840304078B32068006800F00800A9
:100CD00050B394F85C1010208840A8602068006829
:100CE00000F4802080B12068006800F4002028B95A
:100CF000206CC8B12046216C884715E0A06C98B1E3
:100D00002046A16C88470FE02068006800F48070DE
:100D100028B92068006820F0080021680860206C6D
:100D200010B12046216C884794F85C102020884040
:100D30003040002865D02068006800F010000028CE
:100D40005FD094F85C1020208840A86094F83500AB
:100D5000052828D12068006820F016002168086066
:100D60002068406920F0800021684861206C08B943
:100D7000A06C28B12068006820F008002168086095
:100D800094F85C103F208840A860012084F835006A
:100D900000BF002084F8340000BF206D10B1204651
:100DA000216D8847F8BD2068006800F4802080B17C
:100DB0002068006800F4002028B9606C10B120465B
:100DC000616C88471DE0E06BD8B12046E16B884735
:100DD00017E02068006800F4807068B92068006837
:100DE00020F0100021680860012084F8350000BF61
:100DF000002084F8340000BFE06B10B12046E16BA6
:100E00008847606D38B3606D00F00100F0B10520D7
:100E100084F835002068006820F00100216808602F
:100E200000BF0098401C0090B84200D905E020683F
:100E3000006800F001000028F3D100BF012084F811
:100E4000350000BF002084F8340000BFE06C10B112
:100E50002046E16C884700BFA4E700001400002092
:100E60002DE9F0410446002500F0F6F9074614B9D3
:100E70000120BDE8F081606A00B100BF022084F863
:100E8000350000BF002084F8340000BF20680068EF
:100E900020F00100216808600AE000F0DDF9C01BC5
:100EA000052805D920206065032084F83500E0E797
:100EB0002068006800F001000028EED12068056875
:100EC00021480540D4E901010843E168084321694C
:100ED000084361690843A1690843E1690843216A3D
:100EE00008430543606A042803D1D4E90B01084391
:100EF0000543206805602068456925F00705606A9C
:100F00000543606A04280DD1A06A0543E06A48B130
:100F10002046FFF7ABFD28B140206065012084F832
:100F20003500A6E7206845612046FFF785FD0646A7
:100F300094F85C103F208840B0600020606501207C
:100F400084F83500002094E73F8010F02DE9F0414F
:100F500004460D4616461F464FF0000800BF94F8A1
:100F60003400012802D10220BDE8F081012084F87C
:100F7000340000BF94F83500012811D1022084F814
:100F80003500002060653B46324629462046FFF783
:100F9000C2FD2068006840F001002168086006E09A
:100FA00000BF002084F8340000BF4FF00208404624
:100FB000DAE72DE9F04704460D4616461F464FF086
:100FC0000008D4F8589000BF94F83400012802D1EA
:100FD0000220BDE8F087012084F8340000BF94F8B7
:100FE0003500012825D1022084F8350000206065F5
:100FF0003B46324629462046FFF78DFD94F85C10AB
:101000003F208840C9F808002068006840F01600BA
:1010100021680860206C28B12068006840F0080052
:10102000216808602068006840F0010021680860BD
:1010300006E000BF002084F8340000BF4FF0020833
:101040004046C6E7F8B502460B46002500240020BE
:101050000021D6E0012606FA01F51E6806EA05041D
:10106000AC4274D11E7906F00306012E04D01E791D
:1010700006F00306022E13D190684F000326BE40EF
:10108000B0434F00DE68BE40304390605068012698
:101090008E40B0431E79C6F300168E403043506038
:1010A0001E7906F00306032E09D0D0684F000326F0
:1010B000BE40B0434F009E68BE403043D0601E79B2
:1010C00006F00306022E13D1CF0802F1200656F8CF
:1010D00027004E07F70E0F26BE40B0434F07FF0E06
:1010E0001E69BE403043CF0802F1200646F82700B3
:1010F00010684F000326BE40B0431E7906F0030679
:101100004F00BE40304310605E6806F44036002E4B
:1011100076D000BF002600963C4E366846F48046E6
:101120003A4F3E603E46366806F48046009600BF61
:1011300000BF374E8F0856F827008E07370F0F264F
:10114000BE40B043334EB24202D1002624E057E005
:10115000314EB24201D101261EE0304EB24201D1E1
:10116000022619E02E4EB24201D1032614E02D4E84
:10117000B24201D104260FE02B4EB24201D1052626
:101180000AE02A4EB24201D1062605E0284EB242BC
:1011900001D1072600E008268F073F0FBE403043ED
:1011A0001B4E8F0846F82700224E3068A0435E6829
:1011B00006F4801606B120431E4E3060361D30689E
:1011C000A0435E6806F4001606B12043194E361D92
:1011D0003060184E361F3068A0435E6806F4003653
:1011E00006B12043134E361F3060361F3068A043CF
:1011F0005E6806F4803606B120430E4E083E30602D
:10120000491C1029FFF426AFF8BD00004438024005
:10121000083801400000024000040240000802407B
:10122000000C02400010024000140240001802406E
:10123000001C0240083C014010B5426921EA02034B
:1012400002EA010443EA0443836110BD0AB18161EB
:1012500001E00B048361704701480068704700009B
:101260000800002003480068034909780844014940
:1012700008607047080000201000002010B50D48DD
:10128000006840F400700B4908600846006840F4AC
:10129000806008600846006840F4807008600320A1
:1012A00000F0D0F80F2000F007F800F055F800200B
:1012B00010BD0000003C0240F0B587B00446002697
:1012C000002700BF002000901E48006840F0010089
:1012D0001C4908600846006800F00100009000BF4B
:1012E00000BF01A902A800F083F900F0B9F9460097
:1012F0001548B6FBF0F0471E14481549086040F247
:10130000E7311348C160476000210161816081615C
:1013100000F05EFC054695B90D4800F08DFC0546D1
:101320006DB9192000F03CF8102C07D2002221469C
:10133000192000F049F80748046000E0012528461C
:1013400007B0F0BD4438024040420F0000000140A9
:10135000DC0200200C00002008B500BF0020009037
:101360000E48006840F480400C4908600846006858
:1013700000F48040009000BF00BF00BF002000903C
:10138000081F006840F08050091F08600846006888
:1013900000F08050009000BF00BF08BD44380240FC
:1013A0000146084600280DDB00BF00BF00F01F0308
:1013B00001229A4043099B0003F1E023C3F8002176
:1013C00000BF00BF00BF70472DE9F05F80460D46AB
:1013D0001646002701F072FE074639462A46334674
:1013E00001F00700C0F1070ABAF1040F02D94FF06B
:1013F000040A01E0C0F1070AD14600F1040ABAF17B
:10140000070F02D24FF0000A01E0A0F1030AD44610
:101410004FF0010A0AFA09FAAAF1010A0AEA020AD5
:101420000AFA0CFA4FF0010B0BFA0CFBABF1010BB3
:101430000BEA030B4AEA0B042146404601F046FE44
:10144000BDE8F09F00BF00F00702064B19684FF699
:10145000FF031940044B0B4343EA0221014B19607F
:1014600000BF70470CED00E00000FA0570B50446BF
:101470000D460CB9012070BD5848006800F0070007
:10148000A84209D255490D700846006800F00700CF
:10149000A84201D00120EEE7207800F002000228E7
:1014A0001DD1207800F00400042805D14C480068C4
:1014B00040F4E0504A490860207800F0080008280D
:1014C00005D14748006840F46040454908604448F9
:1014D000006820F0F000A1680843414908602078C6
:1014E00000F00100A8B36068012807D13C48083823
:1014F0000068C0F34040B8B90120BCE7606802282A
:1015000002D06068032807D1354808380068C0F366
:10151000406048B90120AEE7314808380068C0F3A0
:10152000400008B90120A6E72D48006820F003001C
:10153000616808432A490860FFF78EFE064609E005
:10154000FFF78AFE801B41F28831884202D90320CE
:1015500091E707E02248006800F00C006168B0EBFA
:10156000810FEDD11D48006800F00700A84209D99D
:101570001A490D700846006800F00700A84201D023
:10158000012078E7207800F00400042807D11448EF
:10159000006820F4E050E1680843114908602078B1
:1015A00000F00800082808D10D48006820F46040C9
:1015B000216940EAC1000A49086000F061F8084961
:1015C0000968C1F30311074A515CC8400649086025
:1015D00006480068FFF770FE00204CE7003C024020
:1015E000083802404C760008140000200C0000204F
:1015F0000F2202600D4A126802F0030242600B4A99
:10160000126802F0F0028260084A126802F4E052A6
:10161000C260064A126802F46042D2080261044ABB
:10162000126802F007020A607047000008380240A2
:10163000003C024001480068704700001400002090
:1016400000B5FFF7F7FF04490968C1F38221034A97
:10165000515CC84000BD0000083802405C760008BC
:1016600000B5FFF7E7FF04490968C1F34231034AB7
:10167000515CC84000BD0000083802405C7600089C
:101680002DE9F047002400250026A14625480068E2
:1016900000F00C0020B1042805D008283AD105E05C
:1016A000DFF8849039E0DFF8849036E01D48001FB1
:1016B000006800F03F041B48001F006800F4800031
:1016C00078B11A481749091F0968C1F38811A0FBAE
:1016D00001700146224600233846FEF7D1FD05463B
:1016E0000EE011480F49091F0968C1F38811A0FBDA
:1016F00001700146224600233846FEF7C1FD05462B
:101700000848001F0068C0F30140401C4600B5FBBC
:10171000F6F902E0DFF8109000BF00BF4846BDE8D0
:10172000F0870000083802400024F40000127A001C
:10173000F8B504460CB90120F8BD207800F001008E
:10174000002874D0F948006800F00C0004280DD07F
:10175000F648006800F00C00082813D1F348001F79
:10176000006800F48000B0F5800F0BD1EF48083816
:101770000068C0F34040002859D06068002856D166
:101780000120D9E700BF6068B0F5803F08D1E74885
:101790000838006840F48030E449083908601EE0E9
:1017A0006068B0F5A02F0DD1E0480838006840F41B
:1017B0008020DE49083908600846006840F480301F
:1017C00008600CE0D9480838006820F48030D74918
:1017D000083908600846006820F48020086000BFCF
:1017E000606890B1FFF738FD054606E0FFF734FD6D
:1017F000401B642801D903209EE7CC4808380068C4
:10180000C0F340400028F1D011E0FFF725FD054668
:1018100006E0FFF721FD401B642801D903208BE778
:10182000C24808380068C0F340400028F1D1207851
:1018300000F0020002285FD1BC48006800F00C00F4
:1018400058B1BA48006800F00C0008281CD1B7480D
:10185000001F006800F48000B0B9B4480838006880
:10186000C0F3400020B1E068012801D0012063E707
:10187000AE480838006820F0F800216940EAC1004D
:10188000AA490839086037E0E06800B30120A84998
:101890000860FFF7E1FC054606E0FFF7DDFC401BB2
:1018A000022801D9032047E7A04808380068C0F3A0
:1018B00040000028F1D09D480838006820F0F8006A
:1018C000216940EAC10099490839086014E0002004
:1018D00097490860FFF7C0FC054606E0FFF7BCFC2F
:1018E000401B022801D9032026E7904808380068E9
:1018F000C0F340000028F1D1207800F0080008284B
:101900002CD16069A8B101208A490860FFF7A4FCC6
:10191000054606E0FFF7A0FC401B022801D9032082
:101920000AE782486C300068C0F340000028F1D01C
:1019300014E000207F490860FFF78EFC054606E0B2
:10194000FFF78AFC401B022801D90320F4E6774800
:101950006C300068C0F340000028F1D1207800F01E
:101960000400042870D1002770483830006800F067
:10197000805090B900BF002000906C48383000685B
:1019800040F080506949383108600846006800F02E
:101990008050009000BF00BF01276748006800F436
:1019A0008070B0B96448006840F480706249086093
:1019B000FFF752FC054606E0FFF74EFC401B0228ED
:1019C00001D90320B8E65C48006800F48070002864
:1019D000F2D000BFA068012808D1544868300068E0
:1019E00040F001005149683108601DE0A0680528F9
:1019F0000DD14E486830006840F004004B49683112
:101A000008600846006840F0010008600CE04748A4
:101A10006830006820F001004449683108600846D9
:101A2000006820F00400086000BFA068A8B1FFF7BC
:101A300013FC054609E0FFF70FFC401B41F288311B
:101A4000884202D9032077E626E0384868300068EB
:101A5000C0F340000028EED013E0FFF7FDFB054681
:101A600008E0FFF7F9FB401B41F28831884201D9B9
:101A7000032061E62D4868300068C0F3400000286C
:101A8000EFD1012F07D129483830006820F080506D
:101A900026493831086000BFA069002845D0234896
:101AA000006800F00C0008285DD0A069022845D12C
:101AB00000201F490866FFF7CFFB054606E0FFF749
:101AC000CBFB401B022801D9032035E61748083814
:101AD0000068C0F340600028F1D1D4E90701084351
:101AE000616A40EA81110122A06AC2EB500041EA1A
:101AF00000412C20005D41EA00600C49091F08608C
:101B000001200B490866FFF7A7FB054606E0FFF733
:101B1000A3FB401B022801D903200DE60348083827
:101B20000068C0F340600028F1D049E00838024066
:101B300000004742800E47420070004000202149CB
:101B40000866FFF789FB054606E0FFF785FB401BAB
:101B5000022801D90320EFE51B480068C0F340606C
:101B60000028F2D12CE0A069012800D1E4E5164854
:101B7000001D0668A069012820D006F48001E069F4
:101B800081421BD106F03F01206A814216D147F6FF
:101B9000C0703040616AB0EB811F0FD106F4403154
:101BA0000122A06AC2EB5000B1EB004F06D106F053
:101BB00070612C20005DB1EB006F01D00120BBE50E
:101BC0000020B9E5000047420038024070477047E6
:101BD00010B504460CB9012010BD94F83D0028B999
:101BE000002084F83C00204600F025F8022084F80C
:101BF0003D00211D206800F015FE012084F84600FC
:101C000000BF84F83E0001213F20015540200155CE
:101C10004120015500BF00BF012084F8420043204D
:101C20000155442001554520015500BF012084F88D
:101C30003D000020D0E77047014691F83D000128A3
:101C400001D001207047022081F83D000868C0687B
:101C500040F001000B68D8601A4B086898421BD00E
:101C60000868B0F1804F17D0174B0868984213D01E
:101C7000164B086898420FD0154B086898420BD055
:101C8000144B0868984207D0134B0868984203D059
:101C9000124B086898420CD10868806800F007026F
:101CA000062A0CD00868006840F001000B68186034
:101CB00005E00868006840F001000B68186000202B
:101CC000C0E70000000001400004004000080040A0
:101CD000000C00400004014000400140001800409A
:101CE000704770B504462068C5682068066906F02C
:101CF0000200022819D105F00200022815D1401F68
:101D000021680861012020772068806900F00300C5
:101D100018B12046FFF7E4FF05E0204600F097F8F1
:101D2000204600F095F80020207706F004000428F3
:101D300019D105F00400042815D1C04321680861B9
:101D4000022020772068806900F4407018B1204696
:101D5000FFF7C6FF05E0204600F079F8204600F0C6
:101D600077F80020207706F00800082819D105F040
:101D70000800082815D1C043216808610420207795
:101D80002068C06900F0030018B12046FFF7A8FFE3
:101D900005E0204600F05BF8204600F059F80020EE
:101DA000207706F01000102819D105F01000102837
:101DB00015D1C04321680861082020772068C069D8
:101DC00000F4407018B12046FFF78AFF05E0204676
:101DD00000F03DF8204600F03BF80020207706F0A8
:101DE000010048B105F0010030B16FF00100216839
:101DF0000861204600F02EF806F08000802809D106
:101E000005F08000802805D1C04321680861204684
:101E1000FFF7DCFE06F04000402809D105F0400045
:101E2000402805D1C04321680861204600F01EF813
:101E300006F02000202809D105F02000202805D137
:101E4000C043216808612046FFF7C1FE70BD70479E
:101E50007047000010B5044603492068884201D14C
:101E6000FFF700FA10BD0000000001407047704706
:101E7000704700002DE9F84F044620680568206887
:101E8000C668206847694FF00009CA4605F00F0987
:101E9000B9F1000F0AD105F0200038B106F020009A
:101EA00020B1204600F05CFEBDE8F88FB9F1000FCC
:101EB0007CD007F0010018B906F49070002875D0A6
:101EC00005F0010030B106F4807018B1606C40F08C
:101ED0000100606405F0040030B107F0010018B1A2
:101EE000606C40F00200606405F0020030B107F061
:101EF000010018B1606C40F00400606405F0080057
:101F000048B106F0200010B907F0010018B1606C6C
:101F100040F008006064606C002846D005F02000A6
:101F200028B106F0200010B1204600F019FE20680C
:101F30004069C0F3801A606C00F0080010B9BAF173
:101F4000000F2DD0204600F0B2FD2068406900F05F
:101F50004000402820D100BF00BF2168143151E863
:101F6000001F21F040002168143141E80002002ADE
:101F7000F3D100BFE06B50B17748E16B0865E06BCF
:101F8000FEF739FE88B1E06B016D88470DE0204611
:101F9000FFF76EFF09E009E02046FFF769FF04E064
:101FA0002046FFF765FF002060647DE7206B012875
:101FB00078D105F01000002874D006F01000002839
:101FC000FAD000BF002000902068006800902068D0
:101FD0004068009000BF00BF2068406900F04000EA
:101FE000402860D1E06B006840681FFA80F8B8F1C3
:101FF000000F56D0A08D404553DDA4F82E80E06B35
:10200000C069B0F5807F43D000BF00BF21680C31AC
:1020100051E8001F21F4807021680C3141E8000272
:10202000002AF3D100BF00BF00BF2168143151E87E
:10203000001F21F001002168143141E80002002A4C
:10204000F3D100BF00BF00BF2168143151E8001F69
:1020500021F040002168143141E80002002AF3D148
:1020600000BF202084F842000020206300BF00BF92
:1020700021680C3151E8001F21F0100021680C315B
:1020800041E80002002AF3D100BFE06BFEF75DFDDE
:1020900002206063A08DE28D801A81B22046FFF796
:1020A000E6FE01E742E0A08DE18D401A1FFA80F8BC
:1020B000E08DD0B3B8F1000F37D000BF00BF21686A
:1020C0000C3151E8001F21F4907021680C3141E877
:1020D0000002002AF3D100BF00BF00BF2168143105
:1020E00051E8001F21F001002168143141E800028D
:1020F000002AF3D100BF202084F842000020206392
:1021000000BF00BF21680C3151E8001F21F0100012
:1021100021680C3141E80002002AF3D100BF0220FF
:10212000606341462046FFF7A2FEBDE605F0800051
:1021300030B106F0800018B1204600F009FFB3E688
:1021400005F0400030B106F0400018B1204600F024
:10215000E4FCA9E600BFA7E60D29000810B5044677
:102160000CB9012010BDA06900B100E000BF94F8D7
:10217000410028B9002084F84000204600F02AF8E9
:10218000242084F841002068C06820F400502168B1
:10219000C860204600F062FD2068006920F490408D
:1021A000216808612068406920F02A0021684861A0
:1021B0002068C06840F400502168C8600020606456
:1021C000202084F8410084F842000020606300BFB2
:1021D000C8E7000010B586B00446142101A8FEF738
:1021E000CAF87C49206888427ED100BF0020009058
:1021F0007948006840F48000774908600846006824
:1022000000F48000009000BF00BF00BF00200090DD
:1022100071481430006840F010006F4914310860B4
:102220000846006800F01000009000BF00BF00BF2B
:10223000002000906848006840F00100664908608E
:102240000846006800F00100009000BF00BF4FF496
:10225000C0600190022002900020039003200490AF
:102260000720059001A95D48FEF7ECFE5C485D493A
:1022700008604FF00060486000215A488160C160EA
:102280004FF480610161002141618161C16101629E
:1022900004214162012181620021C1620163FEF7D4
:1022A000DFFD08B1FEF74EFC00BF4E48E0638463DB
:1022B00000BF4B4878304C4908604FF000604860E0
:1022C0004021494881600021C1604FF48061016173
:1022D000002141618161C1610162042141620121EA
:1022E00081620021C16200E013E00163FEF7B8FDE6
:1022F00008B1FEF727FC00BF3B48A063846300BF22
:10230000002211462520FFF75FF82520FFF748F847
:102310005EE03649206888425AD100BF0020009014
:102320002D481030006840F400302B49103108600F
:102330000846006800F40030009000BF00BF00BFF6
:10234000002000902448006840F001002249086005
:102350000846006800F00100009000BF00BF0C209C
:102360000190022002900020039003200490072097
:10237000059001A91948FEF765FE1D481D49086032
:102380004FF00060486000211A488160C1604FF43E
:1023900080610161002141618161C16101620421AB
:1023A0004162012181620021C1620163FEF758FD93
:1023B00008B1FEF7C7FB00BF0E48E063846300BFAF
:1023C000002211462620FEF7FFFF2620FEF7E8FF39
:1023D00006B010BD0010014030380240000002403D
:1023E00040640240BC0100201C0200200044004068
:1023F000886002407C02002070B504460D461646F7
:1024000094F8420020280BD105B10EB9012070BD0F
:102410000020206332462946204600F035FDF6E7CD
:102420000220F4E770477047F7B50446154694F864
:102430004100202836D1019800B10DB90120FEBD20
:1024400001982062A584E58400206064212084F83E
:1024500041001548A16BC8631448A16B0864144877
:10246000A16BC8640020A16B086501AE23681A1D2A
:1024700031682B46A06BFEF79CFD6FF04000216891
:10248000086000BF00BF2168143151E8001F41F00F
:1024900080002168143141E80002002AF3D100BF16
:1024A0000020CCE70220CAE7492A0008A12A000838
:1024B000212900087047704700BFFEE710B500F003
:1024C0000FF810BD08E04FF400510448FEF7B4FEC9
:1024D0004FF47A7001F058FBF5E700000008024065
:1024E00010B56C210848FDF746FF002000F086FD7E
:1024F000064805494866064888664FF480720549D3
:10250000014802F04BFF10BDA096002055250008A1
:102510005D2500080C97002038B50C48FEF72FFA0F
:1025200090B90A48FEF702FA054600240AE0694617
:102530000648FEF7FEF99DF80010054802F004FE7B
:10254000601C84B2AC42F2DB38BD00000C9D002060
:10255000A0960020024600207047000070B5044697
:102560000D4600BF064800680068C0F380100028D0
:10257000F8D02A4621460248FFF756FF70BD0000FA
:102580002C01002008B500BF002000901A48006808
:1025900040F48000184908600846006800F4800094
:1025A000009000BF00BF00BF0020009008460068F8
:1025B00040F4001008600846006800F40010009025
:1025C00000BF00BF002211461020FEF7FDFE1020C4
:1025D000FEF7E6FE002211463A20FEF7F5FE3A200D
:1025E000FEF7DEFE002211464620FEF7EDFE4620F5
:1025F000FEF7D6FE08BD00003038024000B587B0B7
:10260000142102A8FDF7B7FE00BF002001901F486B
:10261000006840F004001D4908600846006800F0AA
:102620000400019000BF00BF00BF002001900846D9
:10263000006840F0800008600846006800F08000F4
:10264000019000BF00BF00BF002001900846006855
:1026500040F0010008600846006800F001000190A9
:1026600000BF00BF00224FF400510948FEF7EEFD05
:102670004FF4005002900120039004900020059038
:1026800002A90348FEF7DEFC07B000BD3038024067
:102690000008024010B51148114908604FF4E130BC
:1026A000486000210E488160C16001610C214161D8
:1026B00000218161C161FFF751FD08B1FEF742FAC7
:1026C00007480068C06840F0100005490968C86004
:1026D000802204490248FFF78FFE10BD0010014020
:1026E0002C0100200C98002010B50B480B49086005
:1026F0004FF4E1304860002108488160C160016109
:102700000C21416100218161C161FFF727FD08B102
:10271000FEF718FA10BD00000044004074010020CC
:1027200000BFFEE700BFFEE704E0FFF7F5FE012073
:1027300001F02AFAF9E710B501F08EFA04F0CEFCA8
:10274000012801D004F044F910BD000000B593B099
:10275000302107A8FDF70FFE142102A8FDF70BFE9C
:1027600000BF002001902448006840F080502249BA
:1027700008600846006800F08050019000BF00BF6C
:1027800000BF002001901D48006840F480401B49B4
:1027900008600846006800F48040019000BF00BF58
:1027A000012007900004089002200D9041050E9131
:1027B00004210F91A821109102211191042112915D
:1027C00007A8FEF7B5FF08B1FEF7BCF90F2002908D
:1027D00002200390002004904FF4A05005904FF485
:1027E00080500690052102A8FEF740FE08B1FEF7D2
:1027F000A9F913B000BD000040380240007000404D
:102800000348006840F47000014908607047000008
:1028100088ED00E010B50248FFF763FA10BD000034
:10282000DC02002010B502682D4B98420ED0B0F1AA
:10283000804F0BD02B4B984208D02B4B984205D0A1
:102840002A4B984202D02A4B984203D122F07002C0
:102850004B681A43224B984220D0B0F1804F1DD0D4
:10286000204B98421AD0204B984217D01F4B9842C9
:1028700014D01F4B984211D01E4B98420ED01E4BC5
:1028800098420BD01D4B984208D01D4B984205D062
:102890001C4B984202D01C4B984203D122F4407248
:1028A000CB681A4322F080034C6943EA04020260B9
:1028B0008B68C3620B688362094B984202D00C4B51
:1028C000984201D10B69036301234361036903F05B
:1028D00001031BB1036923F00103036110BD000074
:1028E000000001400004004000080040000C0040CF
:1028F0000004014000400140004401400048014004
:1029000000180040001C00400020004070B5054643
:10291000AC6B0020E085E0842046FFF7A9FA70BD8B
:1029200070B506460025B46B20684069C0F3C01539
:1029300094F84100212805D125B10020E0842046EB
:1029400000F0FBF820684069C0F3801594F842005D
:10295000222805D125B10020E085204600F0A7F807
:10296000606C40F0100060642046FFF781FA70BD93
:1029700070B50546AC6B2868006800F480700028CC
:1029800042D1E08500BF00BF21680C3151E8001F33
:1029900021F4807021680C3141E80002002AF3D153
:1029A00000BF00BF00BF2168143151E8001F21F0B3
:1029B00001002168143141E80002002AF3D100BF70
:1029C00000BF00BF2168143151E8001F21F0400012
:1029D0002168143141E80002002AF3D100BF202011
:1029E00084F84200206B01280ED100BF00BF21688F
:1029F0000C3151E8001F21F0100021680C3141E832
:102A00000002002AF3D100BF00206063206B012880
:102A100004D1A18D2046FFF72AFA02E02046FFF7F5
:102A200001FD70BD70B50546AC6B01206063206B85
:102A3000012805D1A08D41082046FFF718FA02E0D1
:102A40002046FFF7F0FC70BD70B50546AC6B2868FA
:102A5000006800F48070F8B90020E08400BF00BF77
:102A60002168143151E8001F21F0800021681431E1
:102A700041E80002002AF3D100BF00BF00BF216877
:102A80000C3151E8001F41F0400021680C3141E851
:102A90000002002AF3D102E02046FFF70BFD70BDD3
:102AA00070B50446A56B2846FFF705FD70BD00BF55
:102AB00000BF02680C3252E8002F22F490710268C5
:102AC0000C3242E80013002BF3D100BF00BF00BF5F
:102AD0000268143252E8002F22F001010268143219
:102AE00042E80013002BF3D100BF016B01290ED186
:102AF00000BF00BF02680C3252E8002F22F0100124
:102B000002680C3242E80013002BF3D100BF2021F1
:102B100080F8421000210163704710B50446206818
:102B2000C06820F040002168C860202084F841007F
:102B30002046FFF7BFFC002010BD00BF00BF0268A9
:102B40000C3252E8002F22F0C00102680C3242E839
:102B50000013002BF3D100BF202180F841107047F3
:102B6000F8B5044694F84200222875D1A068B0F563
:102B7000805F0CD1206950B90025A66A20684068A2
:102B8000C0F308003080A06A801CA06215E0A56A2E
:102B90000026A068B0F5805F03D0A06828B920693E
:102BA00018B920684068287004E02068406800F088
:102BB0007F002870A06A401CA062E08D401E80B299
:102BC000E085002846D12068C06820F020002168F8
:102BD000C8602068C06820F480702168C8602068E0
:102BE000406920F0010021684861202084F84200FB
:102BF00000206063206B012826D10020206300BFE5
:102C000000BF21680C3151E8001F21F0100021683D
:102C10000C3141E80002002AF3D100BF20680068AF
:102C200000F0100010280AD100BF0020009020689A
:102C30000068009020684068009000BF00BFA18D30
:102C40002046FFF714F902E02046FFF7EBFB0020D7
:102C5000F8BD01E00020FBE70220F9E72DE9F84F7D
:102C600004462068006920F44050E1680843216868
:102C700008612169A068084361690843E169084364
:102C800000902068C06849F20C61884300990843AD
:102C90002168C8602068406920F44070A169084339
:102CA0002168486176492068884203D075492068C8
:102CB000884203D1FEF7D4FC814602E0FEF7C0FC57
:102CC0008146E069B0F5004F6CD102206168A0FB3D
:102CD000015003461920A9FB007001462A463846D8
:102CE000FDF7CEFA6421B0FBF1F04FEA001A0220A2
:102CF0006168A0FB01510B461920A9FB00712A460F
:102D00003846FDF7BDFA834602206168A0FB0150FA
:102D100003461920A9FB00712A463846FDF7B0FA90
:102D20006421B0FBF1F000EBC00101EB0010ABEB54
:102D30008000322101EBC0006421B0FBF1F000F013
:102D4000F8000AEB400A02206168A0FB015003462C
:102D50001920A9FB007001462A463846FDF790FA73
:102D6000834602206168A0FB015003461920A9FB9D
:102D700000712A463846FDF783FA6421B0FBF1F072
:102D800000EBC00101EB0010ABEB8000322101EB46
:102D9000C0006421B0FBF1F000F00700504421684E
:102DA00088606AE004206168A0FB01500346192096
:102DB000A9FB007001462A463846FDF761FA8246B3
:102DC00004206168A0FB015003461920A9FB007094
:102DD00001462A463846FDF753FA6421B0FBF1F06C
:102DE00000EBC00101EB0010AAEB8000322101EBE7
:102DF00000106421B0FBF1F000F0F00A04206168DB
:102E0000A0FB017003461920A9FB00513A46284651
:102E1000FDF736FA6421B0FBF1F00AEB001A04204A
:102E20006168A0FB01510B461920A9FB00712A46DD
:102E30003846FDF725FA834604206168A0FB01505F
:102E400003461920A9FB007001462A463846FDF7C3
:102E500017FA6421B0FBF1F000EBC00101EB0010A8
:102E6000ABEB8000322101EB00106421B0FBF1F0EC
:102E700000F00F00504421688860BDE8F88F000022
:102E8000001001400014014077B581B0044615469A
:102E90000298A062A58500206064222084F8420088
:102EA0002848E16BC8632848E16B08642748E16B58
:102EB000C8640020E16B086502AE32682368191D02
:102EC0002B46E06BFEF775F800BF002000902068ED
:102ED0000068009020684068009000BF00BF206933
:102EE00070B100BF00BF21680C3151E8001F41F4F0
:102EF000807021680C3141E80002002AF3D100BF44
:102F000000BF00BF2168143151E8001F41F00100EB
:102F10002168143141E80002002AF3D100BF00BF4C
:102F200000BF2168143151E8001F41F040002168C2
:102F3000143141E80002002AF3D100BF002004B0A0
:102F400070BD000071290008252A00082129000809
:102F5000014691F84100212828D18868B0F5805FAA
:102F60000BD1086948B90A6A1088C0F308000B68D9
:102F70005860086A801C086205E00B6A581C0862E9
:102F800018780B685860C88C401E80B2C88458B945
:102F90000868C06820F080000B68D8600868C068C6
:102FA00040F040000B68D860002070470220FCE72A
:102FB00008B50D4800680068C0F3001078B100BF84
:102FC00000200090084800680068009006480068EB
:102FD0004068009000BF00BF034800F031F802488D
:102FE000FEF748FF08BD00002C01002010B5024884
:102FF000FEF740FF10BD00007401002010B504462C
:103000000C4901EB04204FF48071FDF7B4F90A4933
:1030100001EB04204FF48071FDF7ADF9054A02EB96
:103020000421064A02EB04104FF48072FDF79BFC6A
:1030300010BD00000C9900200C9B00200C9D00206E
:1030400070B5054600261048854200D100240F487F
:10305000FDF77BFDE86B00684068C0F1800086B238
:103060000B4A02EBC4110B4A02EB04103246FDF787
:1030700096FC074800EBC41203480068011D80233A
:103080000248FDF763FF70BD2C010020BC01002049
:103090000C9800200C9D002000BFFEE70FB4054BEC
:1030A00010B503A9044A029800F0FCF810BC5DF8C2
:1030B00014FB0000E13900082801002002480068E4
:1030C000C0F30220704700000CED00E010B50028AE
:1030D00004DB0A07130E054A135406E00A07140E10
:1030E000034A00F00F031B1FD45410BD00E400E09E
:1030F00018ED00E010B5012000F0D0FC10BD7047C5
:1031000002E008C8121F08C1002AFAD170477047B0
:10311000002001E001C1121F002AFBD1704700000E
:103120002DE9FF5F82B00021DDE90430020DDDF8FA
:1031300040B0034318D044F61050A2F2FF3242438D
:103140001514119801281FD0A5EB0B00401C5FEA55
:10315000000A4FF000064E4FDFF83891B046504657
:1031600015D5CAF1000413E0119801244AA30128DF
:1031700001D16FEA0B010298119AC0E90031C0E950
:10318000024206B0BDE8F09FCBF10000DFE7044645
:103190000021404A491842EB0450CDE9001012E0EA
:1031A000E00707D032463B4640464946FDF7FEF968
:1031B0008046894632463B4610461946FDF7F6F9E9
:1031C00006460F466410002CEAD1DDE90401DDE972
:1031D0000023BAF1000F06DAFDF7E8F942464B4644
:1031E000FDF7E4F905E0FDF753FA42464B46FDF7DB
:1031F0004FFA04460E460022284BFDF7D1FA03D8B9
:103200004FF0FF30014607E00022254B20463146B3
:10321000FDF725F9FDF7ABFA102409E0002C0ADBD5
:103220000A220023FDF72CF8039B30321A55641E46
:1032300050EA0102F2D1641C039AC4F11103144450
:10324000119A012A03D0012208430DD10AE0084354
:1032500004D000204FF0110B119072E7A3EB0B0587
:103260006D1E0DE05B4504DD4FF0000205F1010528
:1032700004E003DA4FF00002A5F10105002AECD0CA
:1032800002981199C0E90231C0E9004579E70000D0
:10329000000014400000F03F300000000000F04348
:1032A0000000E03F2DE9FF4F95B09A46884606465C
:1032B0000025EEE1252877D100242746F94A01218F
:1032C000039400E0044316F8013F203B01FA03F0A9
:1032D0001042F7D130782A2811D06FF02F033078C0
:1032E000A0F13002092A16D8039A44F0020402EB36
:1032F000820203EB42021044761C0390EFE758F879
:10330000042B0392002A03DA504244F40054039041
:1033100044F00204761C30782E2816D116F8010FDE
:1033200044F004042A280DD06FF02F023078A0F169
:103330003003092B09D807EB870302EB4303C718B7
:10334000761CF3E758F8047B761C30786C280FD095
:1033500006DC4C2817D068280DD06A2814D104E068
:10336000742810D07A280FD10DE044F400140AE03C
:1033700044F4801401E044F440147278824202D193
:1033800004F58014761C761C307866280BD013DC8C
:10339000582877D009DC002875D04528F6D0462873
:1033A000F4D047281AD193E118E0632835D0642877
:1033B00079D0652812D18BE1702873D008DC67289A
:1033C000F1D069286FD06E280DD06F2806D1ACE0FF
:1033D00073282CD0752874D0782853D0524617996A
:1033E00090476D1C54E1C4F30250022809D0032811
:1033F0000DD0D8F8001004280DD00D6008F1040895
:1034000046E1D8F80010EA17C1E90052F6E7D8F80B
:1034100000100D80F2E70D70F0E718F8041B8DF82E
:10342000001000208DF80100EB46012003E058F861
:1034300004BB4FF0FF3061074FF0000102D40DE0F4
:1034400009F101018946B9420FDA8145F8DB1BF821
:1034500009100029F4D108E009F1010189468142EF
:10346000FADB1BF809100029F6D103985346A0EBAC
:10347000090721463846179A00F080FA284400EBE5
:10348000090507E044E008E10DE01BF8010B524696
:1034900017999047B9F10109F7D2534621463846AA
:1034A000179AF2E039E00A21C4F302524FF0000B00
:1034B0000091022A06D058F8040BC117032A09D03C
:1034C0000AE023E008F1070020F00702F2E8020119
:1034D000904605E000B2C117042A01D140B2C117DD
:1034E000002906DA0A460021404261EB02012D2242
:1034F00002E0220504D52B228DF80420012203E0EE
:10350000E20701D02022F7E7914657E00A2100E0C8
:1035100010214FF0000B00910BE010214FF0000B39
:1035200044F004040827009103E008204FF0000B4A
:103530000090C4F30252022A05D058F8040B00216F
:10354000032A08D008E008F1070020F00702F2E89B
:103550000201904603E080B2042A00D1C0B24FF0CD
:10356000000922072AD53278702A07D0DDF800C07A
:103570008CF0100C5CEA0B0C05D00EE040228DF8AC
:103580000420012208E050EA010306D030238DF820
:1035900004308DF8052002229146009B83F0080339
:1035A00053EA0B030AD150EA010201D1620705D5A3
:1035B00030228DF804204FF001097F1E3278582AFE
:1035C00004D039A20C920CAA02920BE03BA2F9E7BC
:1035D0005B46009AFCF754FE0C9B9B5C029A521EC1
:1035E0000292137050EA0102F2D1029804A9081A5B
:1035F00000F1200B600702D524F4803400E001279D
:103600005F4502DDA7EB0B0000E0002000EB0B01A3
:10361000009003984944401A0390E00306D45346AF
:103620002146179A039800F0A9F90544002706E0FF
:1036300001A85246C05D179990476D1C7F1C4F45ED
:10364000F6DBE0030CD553462146179A039800F0A9
:1036500095F9054404E030205246179990476D1CB7
:103660000099481E00900029F5DC08E002980299B4
:1036700052460078491C0291179990476D1CBBF186
:103680000001ABF1010BF1DC5BE100F065F90544F1
:10369000761C307800287FF40DAE19B02846BDE8BE
:1036A000F08F0000092801003031323334353637CD
:1036B000383961626364656600000000303132337E
:1036C000343536373839414243444546000000001E
:1036D000600700D4062708F1070020F00700F0E893
:1036E0000223804603F0004C5FEA0C0001D097A053
:1036F00009E0200501D596A005E0E00701D095A0DE
:1037000001E0AFF24C001390307823F000436528BD
:103710000CD006DC452809D046281DD047287FD18B
:103720003BE0662818D067287AD136E00021112FB7
:1037300001DB112000E0781CCDE9000104A90CA8F0
:10374000FFF7EEFCDDE90D010C9A4FF0000B07F1DD
:103750000109109200914EE04FF000400097CDE932
:10376000011004A90CA8FFF7DBFCDDE90D020C9B9E
:103770000F994FF0000B91461093009211B9791CEC
:1037800000EB0109B7EB090003D4C0F1FF3B07F1DF
:103790000109A9EB0700019042E0012F00DA01279F
:1037A0000021112F01DD112000E03846CDE9000194
:1037B00004A90CA8FFF7B4FCDDE90D010C9A0091F7
:1037C0004FF0000BB946109221070FD4009A4A45DA
:1037D00003DA914601E0A9F10109B9F1010F05DD14
:1037E000109AA9F10101515C3029F4D0B84202DAF3
:1037F00010F1040F03DA0121CDE9011010E00028D7
:1038000003DC8344A9EB000102E0411C494500DDD3
:103810008946A0EB0B00401C01904FF00040029045
:10382000200705D40198484502DB4FF0FF30019096
:1038300000208DF84B0002980DF14B07B0F1004FBE
:1038400025D002200C902B200D90029800280CDA35
:10385000404202902D200D9007E00A210298FCF7CB
:10386000C9FD3031029007F8011D0C99481E0C90DB
:103870000029F2DC02980028EFD1791E0D9808701B
:10388000307800F0200040F0450007F8020D11A844
:10389000C01BC01D02901398007800B1012000EBFE
:1038A0000901019801EBE071029801440398401A64
:1038B000401E0390E00306D453462146179A03980E
:1038C00000F05CF805441398007818B15246179937
:1038D00090476D1CE00323D553462146179A039861
:1038E00000F04CF805441BE0BBF1000F07DB00982B
:1038F000584504DD1098179910F80B0001E017994E
:1039000030205246904701980BF1010B401E05F103
:103910000105019004D12E205246179990476D1C45
:10392000B9F10001A9F10109DEDC05E017F8010B8E
:103930005246179990476D1C0299481E0290002923
:10394000F4DC53462146179A03989EE62D000000AA
:103950002B000000200000002DE9F0410446002566
:103960001E461746880404D405E039462020B04797
:103970006D1C641EF9D52846BDE8F0812DE9F041A3
:10398000044600251E469046C80301D5302700E0B6
:103990002027880404D505E041463846B0476D1C11
:1039A000641EF9D52846BDE8F0812DE9F04100F00C
:1039B00025F9461C41F1000700F010F904460D46B8
:1039C00000F0ACF940B1311B67EB0500103970F124
:1039D000000001DBA4197D4120462946BDE8F081A5
:1039E00000BF044A126802F04002002AF9D0014ADE
:1039F000506070470010014070B504460E462146E5
:103A000007A0FFF74BFB012506E056F8251009A09B
:103A1000FFF744FB681CC5B2A542F6DB70BD000091
:103A2000256420706172616D657465722873290D5B
:103A30000A00000025730D0A000000002DE9F04186
:103A400000210C460D4600F0C3F80646002718E09A
:103A5000FFF7ABFF0F4A13685268C41841EB020529
:103A60000D4908684968201A75EB010003DA0A4815
:103A70000468456802E0084804604560304600F08C
:103A800055F9381E07F10407E2D020462946BDE863
:103A9000F081000020010020F00000202DE9F0411D
:103AA0000446002500F094F80646002708E020466A
:103AB00000F0A9F8054600F083F8304600F036F92A
:103AC000381E07F10407F2D002F012FB0021094A68
:103AD00011605160084A11605160084A11605160DC
:103AE0000020074A10605060FFF709FB2846BDE838
:103AF000F0810000200100201001002018010020AA
:103B0000F00000201CB500BFFDF7B8FB0120FFF757
:103B1000C5FFFEF71BFEFEF771FDFEF733FDFEF756
:103B2000B9FDFEF7E1FDFEF7C9FC0D4802210023B7
:103B30008022CDE900100BA10D4803F09FFA00BFD1
:103B40000C48022100238022CDE900100AA10D4873
:103B500003F094FA00BF02F0D9FD00BFFEE70000B9
:103B6000000000204C45445F5461736B000000006E
:103B7000C5240008040000205368656C6C5F546124
:103B8000736B00002927000810B5044603F0A6FA5D
:103B900001280CD000BFEFF3058109B9002000E037
:103BA000012000BF18B9204602F092FC05E04FF456
:103BB0007A7104FB01F000F001F810BD70470000BD
:103BC0004FF00070014908607047000004ED00E00C
:103BD00000BFEFF31081084672B670474FF0E02047
:103BE000416900228069081A62EB020170470000F7
:103BF0000148006870470000140000204FF0E020EA
:103C000040690021704730B5014600BF01B120E096
:103C100000BF00BFEFF31084234672B600BF184602
:103C2000002211E000234FF0E02423616FF07F4376
:103C300063610023A3610723236100BF00BF80F3FA
:103C4000108800BF00BF00BF131E02F10402E9D0BC
:103C500000BF00BF012030BD2DE9F047FFF7CEFFC8
:103C6000441C41F100052648016840680919684173
:103C7000234A1160506000BF2248006810EB04081E
:103C800045F1000920480268002340464946FCF7F8
:103C900028FB06460F461D4801684068891978418F
:103CA0001A4A1160506018480068A6FB0001B8EB82
:103CB00000001449086000BF00BF1548006810EB01
:103CC000040845F1000913480268002340464946AC
:103CD000FCF707FB06460F460F4801684068891944
:103CE00078410D4A116050600A480068A6FB000147
:103CF000B8EB00000649086000BFBDE8F08700008F
:103D000020010020040100200001002010010020FB
:103D100008010020FC000020180100200248006873
:103D2000C0F380607047000004ED00E000BF80F346
:103D3000108800BF704700002DE9F04105460E468F
:103D40001C4807681C480068001D02F00BFA50B9B7
:103D50001948006890F82C1001208840174909681C
:103D6000814316480160681C38B936B112480168B1
:103D7000091D134802F034FA1AE07C190E48006855
:103D80004460BC4207D20C480168091D0D48006818
:103D900002F00CFA0CE008480168091D0A480068A6
:103DA00002F004FA09480068844201D2074804601E
:103DB000BDE8F0812C000020180000203000002019
:103DC00044060020200000201C00002048000020A5
:103DD00010B5044602F010FA23480068401C22493E
:103DE00008602248006840B920480460084600681E
:103DF00001280DD100F0E6F90AE01D48006838B945
:103E00001A480068C06AE16A884201D8174804600D
:103E100018480068401C1749086094F82C100120CD
:103E2000884015490968084313490860E16A01EBB5
:103E30008101124A02EB8100211D02F0D1F902F04A
:103E40001DFA0B48006868B108480068C06AE16A5A
:103E5000884207D24FF0805009490860BFF34F8F66
:103E6000BFF36F8F10BD0000280000201800002055
:103E700034000020440000203000002074030020A3
:103E800004ED00E010B502F0B7F910480068D0B9B1
:103E90000F4802F07BF90F4802F078F90C480E4900
:103EA00008600C480D490860002210210A2002F029
:103EB000A9FD064908600846006820B108A103482A
:103EC000006802F0C9FA02F0D9F910BD5C000020C8
:103ED000580600206C0600205400002058000020E6
:103EE000546D72510000000070B523E002F066FCD2
:103EF0001348006808B9012000E00020054603F0DF
:103F00007FFABDB902F078F90D48C068C468201D79
:103F100002F028F90B480068401E0A4908600A4868
:103F20000068401E0849086002F0A8F9204600F029
:103F300060F800BF044800680028D7D170BD0000B9
:103F400030060020280000202400002070B5044620
:103F50000D46206C70B1216CE0680844E060616837
:103F6000E068884201D32068E0602846226CE1685E
:103F7000FCF7E8F970BD2DE9F04104460F461546FF
:103F80004FF00008A66B206C40B9206860BB6068E9
:103F900003F06CF980460020606025E07DB9394669
:103FA000226CA068FCF7CEF9216CA0680844A060E0
:103FB000D4E90110884217D32068A06014E0394684
:103FC000226CE068FCF7BEF9216CE068401AE06002
:103FD0002168E068884203D2216C6068401AE06082
:103FE000022D01D106B1761E701CA0634046BDE8CB
:103FF000F08110B50446206B02F076F9204602F0FD
:1040000073F910BD0146084A126812680AB9012204
:1040100000E000220A600A6822B9034A1268D268E6
:10402000106800E0002070475400002030B54FF4C5
:104030001043174800F003042CB1C01C20F003000B
:10404000134C041B1B1B0246124C22600024114D12
:104050006C60D018083820F003000F4C206000245A
:104060000D4D2D686C600C4D2D682C601146441A66
:104070004C60094C24680C60084D4C682C60084D5D
:104080004C682C604FF00044064D2C6030BD0000A1
:1040900080060020680000207000002078000020CA
:1040A000740000207C00002000BFFFF71DFF0648C1
:1040B00000680128F9D94FF0805004490860BFF327
:1040C0004F8FBFF36F8FF0E77403002004ED00E023
:1040D0002DE9F04106460D4617469846069C0DB957
:1040E000246000E02760E66325640121204602F099
:1040F000ABFD0020A064BDE8F08100002DE9FF5F6A
:1041000081460F469246DDE90E6B109CAAF1010034
:10411000216B01EB800828F0030808F0030008B9C0
:10412000012000E0002028B940F22B321BA121A081
:10413000FEF7B4FF002507E0795D04F13400415536
:10414000785D00B902E06D1C102DF5D300BF002191
:1041500043200155202E00D31F26E662666400200E
:10416000A064201D02F01FF804F1180002F01BF8F3
:104170002461C6F12000A06164620020E06484F83C
:10418000500049464046039A00F008FC2060BBF10D
:10419000000F01D0CBF80040BDE8FF9F2E2E5C46FB
:1041A00072656552544F535C7372635C7461736BD8
:1041B000732E63004572726F723A25732C25640D5D
:1041C0000A00000010B5002407E004EB84010F4A48
:1041D00002EB810001F0DAFF641C202CF5D30C48BF
:1041E00001F0D4FF0B4801F0D1FF0B4801F0CEFFE6
:1041F0000A4801F0CBFF0A4801F0C8FF044809490A
:10420000086004480849086010BD000074030020DD
:10421000F4050020080600201C06002030060020BF
:10422000440600201C0000202000002010B501469C
:10423000164800E0006803688B42FBD302464368DF
:1042400013448B4204D143684C68234443600146C5
:104250000A464B6813440468A34211D10C4C03680E
:104260002468A34208D04B680468646823444B6008
:1042700003681B680B6005E0054B1B680B6001E0E1
:1042800003680B60884200D0016010BD6800002008
:10429000700000202DE9F04104460D4616461F46E9
:1042A0004FF0000865602461B5420CD8F01BA1698D
:1042B000884202D34FF0010811E0211D094800682F
:1042C00001F074FF0BE0BE4204D2BD4202D34FF0B6
:1042D000010804E0211D0448006801F067FF404622
:1042E000BDE8F081580000205400002070B505465C
:1042F00001F082FFA86B08B9012400E0002401F05E
:10430000BDFF204670BD70B5054601F075FFA86B76
:10431000E96B884201D1012400E0002401F0AEFFE6
:10432000204670BD2DE9F3410D460098846C0027AE
:104330002CB940F6CE121AA11FA0FEF7AFFEA06B5B
:10434000E16B884201D2012000E0002028B940F64C
:10435000CF1213A118A0FEF7A1FEA06BE16B88425B
:104360001BD294F945602A4669462046FFF703FEB2
:104370000746701C60B9606A08B9012000E000209F
:1043800050B904F1240002F0DFFF28B1012703E057
:10439000701C40B284F8450000BF3846BDE8FC817F
:1043A0002E2E5C4672656552544F535C7372635C8B
:1043B00071756575652E63004572726F723A25736B
:1043C0002C25640D0A000000F8B505460F46134879
:1043D0000068C068C468201D01F0C4FEE0690128BF
:1043E00018D1A06941192B463A462046FFF752FFE3
:1043F00080B1002003462A4601460090204603F083
:10440000CDF806462EB94FF4027205A10BA0FEF7B7
:1044100045FE00BF2046616A8847F8BD5400002071
:104420002E2E5C4672656552544F535C7372635C0A
:1044300074696D6572732E63000000004572726FBF
:10444000723A25732C25640D0A000000F0B587B080
:1044500070E0039800280CDA04AE2EB940F2E7228F
:104460003AA141A0FEF71AFED6E90020B1689047B4
:1044700000BF039800285DDB059C606908B9012036
:1044800000E0002010B9201D01F06CFE02A800F031
:10449000C9F8054603980A284AD2DFE800F0090562
:1044A000072C2E4506082D2F00BF00BF00BF00BF00
:1044B0000498A269811803462A462046FFF7EAFEBF
:1044C000C0B12046616A8847E069012812D1002006
:1044D00000900498A169421800231946204603F071
:1044E0005DF807462FB940F2213218A11EA0FEF751
:1044F000D5FD00BF1DE000BF1BE000BF0498A06118
:10450000A06908B1012000E0002028B94FF44E72E4
:104510000EA115A0FEF7C2FDA06941192B462A463F
:104520002046FFF7B7FE04E0204601F0DDFE00E084
:1045300000BF00BF00231A4603A90F48006802F01D
:104540009DFA002885D107B0F0BD00002E2E5C46F4
:1045500072656552544F535C7372635C74696D6528
:1045600072732E63000000004572726F723A2573F9
:104570002C25640D0A0000005C000020F8B50546FB
:104580000C4602F01BF9684600F04CF8064600980D
:1045900020BB44B9B54206D802F032FF3146284666
:1045A000FFF712FF1CE03CB10E480068006808B934
:1045B000012000E000200446A91B22460A480068AA
:1045C00001F060FF02F01CFF50B94FF08050074926
:1045D0000860BFF34F8FBFF36F8F01E002F010FF51
:1045E000F8BD0000580000205C00002004ED00E051
:1045F0000A490968096809B9012100E0002121B1CF
:104600004FF0FF31064A116006E004490968C968A5
:10461000C868034A41681160704700001C00002010
:104620004800002070B5044602F068FD05460748C2
:104630000068854204D200F00BF80120206001E000
:104640000020206001480560284670BD64000020FD
:104650002DE9F8432DE021480068C06805681F482F
:104660000068C068C468201D01F07CFD2046616AB6
:104670008847E06901281CD1A0694619AE4207D9D4
:1046800066602461211D1548006801F08FFD10E06F
:10469000002003462A4601460090204602F07EFF95
:1046A00007462FB940F292320DA114A0FEF7F6FC96
:1046B00000BF0A480068006808B9012000E0002037
:1046C0000028C8D00548D0F8008010480068034989
:1046D00008600E48C0F80080BDE8F8835400002050
:1046E0002E2E5C4672656552544F535C7372635C48
:1046F00074696D6572732E63000000004572726FFD
:10470000723A25732C25640D0A0000005800002021
:104710000C480068401C08B9012000E0002028B9BE
:1047200040F20F1208A112A0FEF7B8FC00BF502003
:1047300080F31188BFF34F8FBFF36F8F00BF00BFAF
:10474000FEE70000800000202E2E5C467265655258
:10475000544F535C706F72745C525644535C4152B8
:104760004D5F434D34465C706F72742E63000000E1
:104770004572726F723A25732C25640D0A00000091
:1047800008B500BF6846FFF73DFC04462046009987
:10479000FFF7F4FEFFF75AFEF4E770B5044601F0A8
:1047A0002BFD94F945501AE0A06C38B10021204649
:1047B000FFF7B8FD88B101F0C7FE0EE0606A08B9E6
:1047C000012000E0002038B904F1240002F0BCFD13
:1047D00018B101F0B9FE00E003E0681E45B2002DFB
:1047E000E2DC00BFFF2084F8450001F047FD01F046
:1047F00003FD94F9445010E0206908B9012000E05D
:10480000002048B904F1100002F09EFD08B101F04B
:104810009BFE681E45B200E001E0002DECDC00BF0D
:10482000FF2084F8440001F029FD70BD2DE9F0411E
:1048300004464FF0000801F0C1FF3E48006808B987
:10484000FFF7F4FB3C480068204000285FD1A4B18A
:10485000083404F0030080B104F00300C0F1040048
:10486000044404F0030008B9012000E0002020B94E
:10487000BF2232A13AA0FEF711FC002C47D03C48E1
:104880000068844243D83B4E3046056801E02E461E
:104890002D686868A04202D228680028F7D1254810
:1048A0000068854233D0306800F10808286830601D
:1048B0006868001B102813D92F1907F0030008B9E6
:1048C000012000E0002020B9EC221CA124A0FEF76A
:1048D000E5FB6868001B78606C603846FFF7A6FC53
:1048E000234968680968081A214908600846006871
:1048F00021490968884203D21D4800681E490860A2
:104900000D4968680968084368600020286002F063
:1049100077FD08F0030008B9012000E0002028B965
:104920004FF4967205A10EA0FEF7B8FB4046BDE815
:10493000F0810000700000207C0000202E2E5C46DC
:1049400072656552544F535C706F72745C4D656D47
:104950004D616E675C686561705F342E63000000B6
:104960004572726F723A25732C25640D0A0000009F
:1049700074000020680000207800002006480068CD
:1049800030B10549096801F14800896C491C016092
:10499000014800687047000018000020001F4FF019
:1049A00080730360001F21F001030360001F054BAB
:1049B000036014380260001F6FF0020303602038A8
:1049C00070470000114700080146002009E0074A2F
:1049D00052F820201AB9054A42F820107047421CAC
:1049E00010B20528F3DB00BFF8E700008096002036
:1049F00010B504460121204600F075F810BD0000F6
:104A000010B50446226891682069FBF7C6FC60B9BE
:104A100094F8600020F00100401C84F86000084811
:104A20000168204601F04CFB04E00548416B20463C
:104A300001F046FB0020A0810021E18110BD0000B3
:104A40008C0000200246087858B1487800F00F002A
:104A5000082806D0106878B1087813681B781840C9
:104A600050B192F8600000F0010018B94878C0F326
:104A7000001008B1002070474FF0FF30FBE7000046
:104A800010B500F01BFB044624B10348816B20469F
:104A900001F016FB10BD00008C00002070B504462C
:104AA000A189E089081A05B205E02021204601F01D
:104AB00021FA681E05B2002DF7DC217B204600F0AC
:104AC0007FF870BD10B500F0F9FA044614B1204625
:104AD00000F04CFD10BD10B504464FF0FF312046EC
:104AE00000F001F810BD2DE9F04104460D46681CA8
:104AF00008B9012000E000200746E08908B9012D2F
:104B000005D0E089A189884203D1681C08B9BDE8B5
:104B1000F081E089A189884210D1012D0ED1E08970
:104B2000401EE081A089401EA0810021A289206949
:104B300081540121204600F043F83FE038460AE066
:104B4000E18901442269525CE1890144491E2369DB
:104B50005A54411C08B2A289E189511A8142EFDC02
:104B6000A089401EA08137B9E089401EE08108215C
:104B7000204601F0BFF90021A28920698154E08913
:104B800006B206E02069815D204601F0B3F9701C91
:104B900006B2A089B042F5DC2021204601F0AAF936
:104BA000A189E089081A401C06B205E008212046C8
:104BB00001F0A0F9701E06B2002EF7DC00BFA6E7D8
:104BC00070B505460C4603E004A1284601F078FACA
:104BD000201EA4F10101CCB2F6D170BD082008005E
:104BE00010B504464FF0FF31204600F039FB10BDF0
:104BF00010B50446204600F005F80121204601F0DA
:104C0000E5F910BD70B50446A08900B970BD00215A
:104C1000A2892069815494F8600000F0010010B36B
:104C2000204600F07EFB204600F0D6FD0021E18109
:104C3000A181E08E00B9E9E70DA1204601F040FA1C
:104C400000232046A26D616900F06FFE054625B184
:104C50002946204600F010FE04E0064881692046FF
:104C600001F02EFA02E02046FFF7CAFE00BFCDE7B2
:104C70000D0A00008C00002010B5024611460020ED
:104C80000B78302B07D14B78782B02D04B78582BF0
:104C900001D103200EE00B78302B07D14B78622B2B
:104CA00002D04B78422B01D1012003E00B78302B4E
:104CB00000D1022006E00B782E2B03D14B780BB1EC
:104CC000042003E011F8014B002CF4D100BF10BD0B
:104CD00002461378272B01D1531C00E013461946D6
:104CE00000200B785C2B1AD14B786E2B0ED004DC95
:104CF000302B0FD0622B0FD104E0722B04D0742B19
:104D00000AD105E0082009E00D2007E00A2005E0AF
:104D1000092003E0002001E0487800BF00E00878A7
:104D2000704700002DE9F84F05464FF0000A4FF09C
:104D30000A0B2C4600200090012600279FED330A25
:104D400010EE109A804628782D2800D1B61E711CCE
:104D500009B9012100E000214819FFF78DFF8246C3
:104D6000BAF1010F0FD0BAF1020F07D0BAF1030F59
:104D70000ED14FF0100B022000900AE04FF0080B0C
:104D80000120009005E04FF0020B0220009000E0AF
:104D900000BF00BF00982918701C08B9012000E06E
:104DA00000200C1811E020782E2803D14FF00108C4
:104DB000641C0AE0207800F025F907FB0B0708EBDC
:104DC00088004FEA4008641C00BF20780028EAD120
:104DD000BAF1040F17D1B8F1000F14D000EE107A19
:104DE000B8EE401A00EE108AB8EE400AC1EE000A92
:104DF00000EE106AB8EEC00A20EE800A10EE109A9B
:104E00004846BDE8F88F07FB06F0FAE7000000000F
:104E10002DE9F04107460C4616461D4626B120787E
:104E200024282FD1607868B32078272808D16078AB
:104E300030B12046FFF74CFF28600020BDE8F0812C
:104E400020782D2805D02078302808DB20783928D4
:104E500005DC2046FFF766FF28600020EEE720789B
:104E6000242807D1607828B12A462146384600F028
:104E700031F8E3E7207828B1204600F006F82860F2
:104E80000020DBE74FF0FF30D8E770B50446254639
:104E900000262078222802D1601C0446054613E033
:104EA00028785C2805D12846FFF712FFA0556D1C15
:104EB00007E02878222802D10020A05501E02878B8
:104EC000A0556D1C701C86B228780028E8D1A0552A
:104ED000204670BD2DE9F04104460D4616460023DC
:104EE000691C2046A26D00F020FD07463FB13946FF
:104EF000204600F0FDF830600020BDE8F0814FF062
:104F0000FF30FAE72DE9F0478CB080460C46154695
:104F10001E464FF0000A202104A8FBF72CFAA078C7
:104F200000F00F01681E814203DDA07800F00F0041
:104F300000E0681E07464FF0000912E004A800EBED
:104F4000890309F1010056F8201000224046FFF7BE
:104F50005FFF20B14FF0FF300CB0BDE8F08709F1E2
:104F60000109681E4845E9DC082F45D2DFE807F053
:104F700004080E151C232C37A068804782463EE0AB
:104F8000D4F808900498C847824638E0D4F80890CE
:104F9000DDE90401C847824631E0D4F8089004A84E
:104FA00007C8C84782462AE0D4F8089004A80FC86A
:104FB000C847824623E0D4F808900898009004A8D7
:104FC0000FC8C84782461AE0D4F80890DDE9080106
:104FD000CDE9000104A80FC8C84782460FE0D4F805
:104FE0000890DDE908120A98CDE90012029004A8A1
:104FF0000FC8C847824602E04FF0FF3A00BF00BF2B
:105000005046A9E70146302905DB392903DCA1F127
:105010003000C0B27047612905DB662903DCA1F1CD
:105020005700C0B2F6E7412905DB462903DCA1F1B0
:105030003700C0B2EEE70020ECE70146487800F008
:105040000F00012801DCC8687047487800F00F00A5
:10505000072801DCC868F7E7487800F00F00082847
:1050600001DCC868F0E7C868EEE7000010B5044648
:10507000002004E03021104A1154411CC8B2092814
:10508000F8DB607800F00F00012801DC606810BDDB
:10509000607800F00F00072801DC6068F7E76078AF
:1050A00000F00F00082801DC6068F0E70249606842
:1050B00000F0EBFE0048EAE794960020002111E0A2
:1050C0000A4850F8210058B1084850F8210090F8DB
:1050D0006000C0F3400018B1044850F82100704748
:1050E000481C01B20529EBDB0020F8E78096002080
:1050F0002DE9F04107460C460026607800F00F00CD
:10510000801E06281BD2DFE800F003060A0D0E10F1
:10511000A068066814E0A068B0F9006010E0A0681C
:1051200006780DE000BFA6680AE0A06845681DB1DA
:10513000A1680868A84700E00020064600E000BF1C
:1051400000BF3046BDE8F0812DE9F04704468846AF
:10515000B8F1000F01D1BDE8F08718274FF0000922
:10516000208F00F47F4018B100276FF0FF090EE098
:10517000A06B00F47F0018B10827DFF8B49006E0B8
:10518000A06B00F07F4010B110274FF07F49A66D53
:1051900000253DE006EB0510407800F00F000928DF
:1051A00034D106EB05112046FFF74CFC70BB06EB33
:1051B0000510406800EA0900A16B884226D106EB81
:1051C00005104068FF21B940084008FA07F18842FD
:1051D0001CD108FA07F1A06B0843A0634FF0000848
:1051E00047B106EB05104068A7F10801FF228A408D
:1051F000104058B906EB0510806820B106EB051089
:105200008168204688470021A16305E0681C05B23B
:105210005C20005BA842BDDC00BFB8F1000F05D0E8
:105220000021A1634146204600F0C8FA00BF92E782
:105230000000FFFF70B504460D46FFF73FFF06462E
:1052400006B970BD012C03D1304600F089F905E0A4
:10525000012C03DD3046696800F082FE00BFF0E7F4
:1052600070B504460D46002D25DDB4F954105420C8
:10527000005B401E02B2542002535020025B5220B9
:10528000005B824202DD5020005B01E05220005BA7
:10529000404281421DDC5020015B5220005B814274
:1052A00002DD5020005B01E05220005B404201B271
:1052B000542001530DE0002D0ADA5420005B401CFD
:1052C00001B254200153002903DD0021015370BDB8
:1052D000FDE72046FFF7E2FB5420005B18B90021F0
:1052E000A181E1811BE05220005B401DB4F9541004
:1052F0000844052190FBF1F201FB120104F13C008E
:1053000050F821603146206900F000FDA08100B90D
:10531000DDE7A189E1812046216900F0D1FE00BFCF
:10532000D5E710B504460021542001535020005BFE
:10533000002810DD5222125B21690AB9052201E022
:105340005222125B521E04F13C0353F82200FBF779
:1053500024F800B910BD5222135B04F13C0252F84C
:105360002300216900F0D2FC28B15220005B401CD0
:1053700081B2522001535020005B401C81B250206A
:105380000153052901DD052101535220005B052849
:1053900002DB00215220015300BFDBE72DE9F04181
:1053A00004460D4616460020A0810021E1812060C0
:1053B00094F8600020F00100401C84F86000256132
:1053C000062096FBF0F0A086542001535020015394
:1053D00052200153002009E0A28E411C02FB015221
:1053E00004F13C0141F82020411C08B20528F3DB00
:1053F0000E48A0650E480D49401AC0F30F115C20FD
:1054000001532046FFF7E0FA00230AA12046A26DCF
:1054100000F08BFA07463946204600F0C3FA012116
:10542000204600F0D3FDBDE8F0810000187A0008A6
:10543000487B00086C6574746572000070B50446A2
:105440000D46A189A08E401E81420DDB384841687F
:10545000204600F035FE0121204600F0B7FD204631
:10546000216900F02DFE70BDE089A189884218D124
:10547000A189481CA081206945540021A289206986
:105480008154E089401CE08194F8600000F0010044
:1054900008B1284600E02A200146204600F02AFDF7
:1054A00044E0E089A189884240DAA289E189511A61
:1054B00008B20AE0E1890144491E2269525CE1898F
:1054C000014423695A54411E08B20028F2DCE189E4
:1054D000481CE081206945540021A089401C80B20D
:1054E0002269A0811154E089401E06B20EE094F8B2
:1054F000600000F0010010B12069805D00E02A200A
:105500000146204600F0F6FC701C06B2A089B042AD
:10551000EDDCA189E089081A06B205E008212046E1
:1055200000F0E8FC701E06B2002EF7DC00BF9AE720
:105530008C00002010B5FFF7C1FD044614B12046D1
:1055400000F0B8F810BD10B50446E089002806DD6B
:105550000821204600F0CEFCE089401EE08110BD0D
:1055600010B50446204600F001F810BD70B50546A0
:10557000AE6D10488168284600F0A2FD002413E0BB
:1055800006EB0410407800F00F0001280ADC06EB5F
:1055900004112846FFF756FA20B906EB04112846F5
:1055A00000F00AF8601C04B25C20405BA042E7DC1B
:1055B00070BD00008C0000202DE9F04107460C462C
:1055C0002046FFF753FD05462946384600F078FD92
:1055D000C0F1160006B2002E01DD304600E00420C6
:1055E000064600BF2021384600F084FC701E00B241
:1055F000061EF7D1607800F00F00012805DC2A486C
:10560000016C384600F05CFD25E0607800F00F008A
:10561000072805DC2448416C384600F051FD1AE0AB
:10562000607800F00F00082805DC1F48816C3846C0
:1056300000F046FD0FE0607800F00F00092805DC5F
:105640001948C16C384600F03BFD04E01648016D76
:10565000384600F035FD15A1384600F031FD07252C
:105660000DE020780122AA40104008B1782000E027
:105670002D200146384600F03DFC681E45B2002D45
:10568000EFDA0AA1384600F01BFD2046FFF7D5FCF3
:1056900005462946384600F035FC05A1384600F09D
:1056A0000FFDBDE8F08100008C00002020200000EC
:1056B0000D0A000070B50646B56D134841693046C5
:1056C00000F0FEFC00241AE005EB0410407800F026
:1056D0000F00082811DD05EB0410407800F00F00E2
:1056E00009280ADC05EB04113046FFF7ABF920B9B5
:1056F00005EB04113046FFF75FFF601C04B25C202D
:10570000805BA042E0DC70BD8C00002070B50646D6
:10571000B56D13480169304600F0D2FC00241AE050
:1057200005EB0410407800F00F00072811DD05EBB1
:105730000410407800F00F0008280ADC05EB041183
:105740003046FFF77FF920B905EB04113046FFF72B
:1057500033FF601C04B25C20805BA042E0DC70BDC3
:105760008C00002070B50646B56D1348C168304600
:1057700000F0A6FC00241AE005EB0410407800F0CD
:105780000F00012811DD05EB0410407800F00F0038
:1057900007280ADC05EB04113046FFF753F920B95E
:1057A00005EB04113046FFF707FF601C04B25C20D4
:1057B000805BA042E0DC70BD8C00002070B5044628
:1057C0000D4694F8600020F0040084F8600029463B
:1057D0002046FFF733FE70BD18B504460820009040
:1057E000A189202304F11402206900F0EDF9E0867C
:1057F00018BD70B5044600252BE004F1140050F8E4
:105800002500007822280CD1002104F1140050F862
:105810002500017004F1140050F82510491C40F8CF
:10582000251004F1140151F82500FAF7AFFD86B2F6
:1058300004F1140050F82510701E085C222806D1CF
:10584000002104F1140050F82520701E1154681C2A
:1058500085B2E08EA842D0DC70BD10B50446E08968
:10586000A189884207DAE289501CE0812069815CC5
:10587000204600F03FFB10BD2DE9F04104460D46E7
:10588000002694F8600020F00200801C84F860007C
:10589000687800F00F0088B92046FFF7AAFFAF68CC
:1058A000E08E04F11401B84706466878C0F3401052
:1058B00018B93146204600F0BDFB2DE0687800F0B5
:1058C0000F00012810D1E28E04F11403294620466E
:1058D000FFF718FB06466878C0F34010E0B9314680
:1058E000204600F0A7FB17E0687800F00F000228C0
:1058F00009DB687800F00F00072804DC2946204601
:1059000000F002F908E0687800F00F00082803D1E1
:105910002946204600F046F894F8600020F0020086
:1059200084F860003046BDE8F0812DE9F047064676
:10593000884614461F465C20805BB16D611AA0EB5F
:1059400011101FFA80F9002528E004EB05104078BB
:1059500000F00F00092805D004EB05113046FFF7D1
:1059600071F800B118E004EB0510FFF77FFB8246E9
:1059700047B951464046FAF710FD60B904EB0510EF
:10598000BDE8F0873A4651464046FAF714FD10B993
:1059900004EB0510F4E700BF681C85B24D45D4DB6D
:1059A0000020EDE770B504460D462560A86858B1A3
:1059B000A868FAF7EBFC38B1E08E022806DBA16993
:1059C000A868FAF7EAFC08B9012000E0002094F882
:1059D000601060F3000184F860100848816B204675
:1059E00000F06EFB94F8600000F0010020B1034865
:1059F0000168204600F064FB70BD00008C000020B0
:105A00002DE9F04106460F46FFF758FB054615B94C
:105A10000020BDE8F081002331462846AA6DFFF73B
:105A200084FF044634B91148816A284600F048FBD7
:105A30000020EEE7607800F00F00022804DB6078B9
:105A400000F00F0007280ADD3146284600F038FB39
:105A50000648416A284600F033FB0020D9E73A4661
:105A60002146284600F004F8D3E700008C0000200F
:105A70002DE9F04106460C4615466078C0F38010CB
:105A800028B12048016A304600F01AFB34E0607803
:105A900000F00F00801E06282CD2DFE800F003067D
:105AA0000A0D1218A068056025E029B2A0680180DF
:105AB00021E0A06805701EE02946A06800F026F9E4
:105AC00019E01048C169304600F0FAFA13E0A06806
:105AD000806870B1A068006830B1A0688768A1686C
